:020000040000FA
:10000000012883163F308500003086008312850169
:100010008601061686160030A000A100A200A300EB
:10002000A2016400851A1728051A89281128061EBE
:100030001C28861E25282D28061622110130A00016
:10004000A100A1002208A30038288616A2110030C2
:10005000A000A1002208A30038280612221586124B
:10006000A2150230A000A1002208A300230838280E
:10007000851E1128640038280518562085185D2033
:100080000519642085196B20472064003C2820084E
:10009000201C0800A01C08004D28221C0614A21CCD
:1000A0008614221D0615A21D861572282218080026
:1000B00022142008013EA0000800A2180800A21483
:1000C0002008013EA000080022190800221520087F
:1000D000013EA0000800A2190800A2152008013E58
:1000E000A00008000330A4006430A500A40B812800
:1000F0002108A0002308A200061086100611861110
:100100001128FF30A600A50B86287428A60B862888
:1001100081280630A4000617FF30A500A40B922802
:1001200006133C28FF30A600A50B97288C28A60BA9
:1001300097280518A2208518A4200519A62085193E
:10014000A820922806147228861472280615722890
:040150008615722876
:00000001FF
