:020000040000FA
:10000000012883161F308500003086008312850189
:10001000860103108310031183110312051E11289A
:100020000928051C2A20851C3020051D362085192D
:100030003C201B28112800180800801808002028E0
:10004000031C0130831C0230031D0430831D083063
:10005000860009280318080003140030013E080038
:100060008318080083140030013E080003190800BB
:1000700003150030013E0800831908008315003085
:04008000013E080035
:00000001FF
